:100000000C9473000C949B000C949B000C94F30FC5
:100010000C94F30F0C94F30F0C949B000C949B0026
:100020000C949B000C949B000C949B000C949B00E4
:100030000C949B000C949B000C949B000C949B00D4
:100040000C94A90F0C949B000C94770F0C94510FF7
:100050000C949B000C949B000C949B000C949B00B4
:100060000C946B100C949B00005EBCE2613FDD833E
:10007000C29C7E20A3FD1F41009D23BE46DB65F888
:100080008C11AF32CA57E974000000002400270029
:100090002A0000000008000201000003040700001D
:1000A00000000000000000000000250028002B00D8
:1000B00000000000230026002900040404040404B6
:1000C0000404020202020202030303030303010207
:1000D00004081020408001020408102001020408D6
:1000E0001020AA11A91911241FBECFEFD8E0DEBF3E
:1000F000CDBF11E0A0E0B1E0E6E6F8E302C0059074
:100100000D92AA34B107D9F724E0AAE4B1E001C006
:100110001D92AE3EB207E1F710E0C2E7D0E004C0A6
:100120002197FE010E94191CC137D107C9F70E940F
:10013000A3120C94261C0C94000008950895AF920D
:10014000BF92CF92DF92EF92FF920F931F93CF93C4
:10015000DF936C017B018B01040F151FEB015E0126
:10016000AE18BF08C017D10759F06991D601ED91BB
:10017000FC910190F081E02DC6010995892B79F75A
:10018000C501DF91CF911F910F91FF90EF90DF900C
:10019000CF90BF90AF900895FC01538D448D252FD3
:1001A00030E0842F90E0821B930B541710F0CF9611
:1001B000089501970895FC01918D828D981761F043
:1001C000A28DAE0FBF2FB11D5D968C91928D9F5F5A
:1001D0009F73928F90E008958FEF9FEF0895FC0139
:1001E000918D828D981731F0828DE80FF11D858DEC
:1001F00090E008958FEF9FEF0895FC01918D228D7F
:10020000892F90E0805C9F4F821B91098F73992703
:10021000089581E094E00E94FD0021E0892B09F41B
:1002200020E0822F089580E090E0892B29F00E9441
:10023000090181110C9400000895FC01A48DA80F00
:10024000B92FB11DA35ABF4F2C91848D90E0019618
:100250008F739927848FA689B7892C93A089B18938
:100260008C91837080648C93938D848D981306C0D9
:100270000288F389E02D80818F7D80830895EF923D
:10028000FF920F931F93CF93DF93EC0181E0888F50
:100290009B8D8C8D98131AC0E889F989808185FF20
:1002A00015C09FB7F894EE89FF896083E889F989C2
:1002B00080818370806480839FBF81E090E0DF91C4
:1002C000CF911F910F91FF90EF900895F62E0B8D17
:1002D00010E00F5F1F4F0F731127E02E8C8D8E11D2
:1002E0000CC00FB607FCFACFE889F989808185FF39
:1002F000F5CFCE010E941D01F1CFEB8DEC0FFD2F4C
:10030000F11DE35AFF4FF0829FB7F8940B8FEA89F3
:10031000FB8980818062CFCFCF93DF93EC01888D02
:100320008823B9F0AA89BB89E889F9898C9185FD70
:1003300003C0808186FD0DC00FB607FCF7CF8C91FE
:1003400085FFF2CF808185FFEDCFCE010E941D0198
:10035000E9CFDF91CF910895833081F028F4813087
:1003600099F08230A9F008958730A9F08830C9F05B
:100370008430B1F4809180008F7D03C08091800033
:100380008F7780938000089584B58F7784BD08951A
:1003900084B58F7DFBCF8091B0008F778093B000C4
:1003A00008958091B0008F7DF9CFCF93DF93282FF0
:1003B00030E0F901EE56FF4F8491F901E253FF4F0F
:1003C000D491F901E654FF4FC491CC23A1F08111DF
:1003D0000E94AC01EC2FF0E0EE0FFF1FE055FF4F45
:1003E000A591B491EC91ED2381E090E009F480E0D7
:1003F000DF91CF91089580E090E0FACF1F93CF93E3
:10040000DF93282F30E0F901EE56FF4F8491F90178
:10041000E253FF4FD491F901E654FF4FC491CC232E
:10042000A9F0162F81110E94AC01EC2FF0E0EE0F25
:10043000FF1FEA55FF4FA591B4918FB7F894EC9147
:10044000111108C0D095DE23DC938FBFDF91CF91CF
:100450001F910895DE2BF8CFCF93DF9390E0FC013E
:10046000E253FF4F249186549F4FFC0184918823CF
:10047000C9F090E0880F991FFC01E857FF4FA59144
:10048000B491FC01EA55FF4FC591D49161110DC0A3
:100490009FB7F8948C91209582238C938881282390
:1004A00028839FBFDF91CF910895623051F49FB7A9
:1004B000F8943C91822F809583238C93E8812E2B96
:1004C000EFCF8FB7F894EC912E2B2C938FBFEACF00
:1004D000E82FF0E0EE56FF4FE491E33029F150F4BD
:1004E000E130C1F0E230D9F060387105BCF560E070
:1004F0000C94FE01E73011F1E83041F1E430A1F74E
:100500008091800080628093800070938B00609364
:100510008A00089584B5806884BD67BD089584B558
:10052000806284BD68BD089580918000806880935A
:100530008000709389006093880008958091B000D6
:1005400080688093B0006093B30008958091B000FC
:1005500080628093B0006093B400089561E0C8CFDA
:100560008E50806480937C0080917A0080648093B8
:100570007A0080917A0086FDFCCF8091780090917E
:10058000790008953FB7F89480914F0290915002FE
:10059000A0915102B091520226B5A89B05C02F3FF1
:1005A00019F00196A11DB11D3FBFBA2FA92F982F99
:1005B0008827BC01CD01620F711D811D911D42E094
:1005C000660F771F881F991F4A95D1F708958F925C
:1005D0009F92AF92BF92CF92DF92EF92FF926B0108
:1005E0007C010E94C2024B015C01C114D104E104F0
:1005F000F104B9F00E94C202681979098A099B09BD
:10060000683E73408105910580F321E0C21AD1084C
:10061000E108F10888EE880E83E0981EA11CB11C49
:10062000E4CFFF90EF90DF90CF90BF90AF909F907E
:100630008F9008952FB7F89460914B0270914C02FF
:1006400080914D0290914E022FBF089520915D023E
:1006500030915E022817390771F490915B02809106
:100660005C02981741F0E0915B02F0E0E65FFD4F1D
:10067000808190E008958FEF9FEF08950895EF92A5
:10068000FF920F931F93CF93DF93DC015C96ED9065
:10069000FC905D97E114F10479F481E090E0139609
:1006A0009C938E93129790E080E0DF91CF911F9101
:1006B0000F91FF90EF9008955196ED91FC91529714
:1006C00050968C915097982F90950FB75E962C91DD
:1006D0005E97122F127021FD6095F89420811123EE
:1006E00019F1282B2083E7012197F1F728E0462F05
:1006F00050E0308160FF1AC0382B3083E70121972A
:10070000F1F7BA0175956795215089F7112381F0AA
:100710008081892380830FBF5C968D919C91019786
:10072000F1F781E090E0C1CF2923DCCF3923E5CF79
:100730009081892BEFCF20915D0230915E022817C6
:10074000390771F480915C0220915B0290E0805C3B
:100750009F4F821B910960E470E00E94F71B08958F
:1007600090E080E0089520915D0230915E022817AC
:100770003907B9F490915B0280915C02981789F077
:10078000E0915B02F0E0E65FFD4F808120915B022B
:1007900030E02F5F3F4F2F73332720935B0290E0B1
:1007A00008958FEF9FEF0895DC0180E0615090F095
:1007B0009D919827E92FEF70F0E0E859FF4F2491C1
:1007C000E92FE295EF70F0E0E858FF4FE491822FB7
:1007D0008E27ECCF0895FC011386158614861286A9
:1007E000118610861782168215821482138208954C
:1007F000DC012C911196ED91FC91F8948181822B72
:1008000081839281322F30959323928387E090E009
:100810000197F1F781818323818383E290E001973F
:10082000F1F790817894EFECF0E03197F1F79223B3
:1008300081E009F480E00895FC0190810180F2815B
:10084000E02D292F209560FF14C0F8948281822327
:1008500082838181892B8183A3E2B0E01197F1F734
:100860008281982B9283789487ED90E00197F1F73D
:100870000895F8948281822382838181892B8183E8
:10088000AFEFB0E01197F1F78281982B92837894C3
:100890008FE090E0EBCFDF92EF92FF920F931F93E8
:1008A000CF93DF93EC01D62EE42E08E010E0FF2476
:1008B000F39461E08D2D8F2109F460E0CE010E9458
:1008C0001C04FF0C01501109A1F7E11010C0F894AD
:1008D000E981FA8191818881809589238183E981E9
:1008E000FA81928188818095892382837894DF912F
:1008F000CF911F910F91FF90EF90DF900895EF92AD
:10090000FF920F931F93CF93DF938C017B0140E005
:1009100065E50E944B04E70188E0E80EF11C69914F
:1009200040E0C8010E944B04CE15DF05C1F7DF91FE
:10093000CF911F910F91FF90EF900895FC0190814E
:100940000180F281E02DF8948181292F2095822366
:10095000818378943DE743E050E0315029F1DA019A
:100960001197F1F780818923C1F3F8948281822362
:1009700082838181892B81837894ABE7B7E01197DB
:10098000F1F7F894818182238183A3E1B1E011978B
:10099000F1F78081982381E009F080E07894E3E624
:1009A000F6E03197F1F7089580E008958F929F92D5
:1009B000AF92BF92CF92DF92EF92FF92CF93DF93ED
:1009C00000D000D01F92CDB7DEB78091D2049091B5
:1009D000D3040E949E0440E06CEC8091D20490917C
:1009E000D3040E944B044091C90464E48091D20472
:1009F0009091D3040E944B040E941A036B017C0166
:100A00008091CD0481111EC081E08983CA82DB827E
:100A1000EC82FD8229813A814B815C816D8170E09D
:100A200080E090E00F900F900F900F900F90DF916B
:100A3000CF91FF90EF90DF90CF90BF90AF909F90BD
:100A40008F9008958091CE048823C1F08091C904CD
:100A5000811114C08091D2049091D3040E94F803B4
:100A6000813091F20E941A036C197D098E099F0949
:100A70006E3E72408105910568F3C6CFE091CC04CB
:100A8000E9508EEE92E0E33038F4F0E0EE0FFF1F15
:100A9000E35FFE4F808191814C01B12CA12C8091AC
:100AA000CA04882329F060E08091CB040E94FE01F3
:100AB000C501B4010E94E7028091CA04882309F4A9
:100AC000A3CF61E08091CB040E94FE019DCF6F9285
:100AD0007F928F929F92AF92BF92CF92DF92EF92CE
:100AE000FF920F931F93CF93DF938C01EB018091C3
:100AF000D2049091D3040E949E04882309F43FC03D
:100B0000B8018091D2049091D3040E947F0440E008
:100B10006EEB8091D2049091D3040E944B047E012D
:100B20006E0189E0C80ED11C8E01A090D204B09055
:100B3000D30488E0882E912C712C66246394C5011F
:100B40000E94F80381117628660CE1E08E1A910864
:100B5000B1F7F80171928F01CE16DF0631F780915F
:100B6000D2049091D3040E949E04813041F4F70195
:100B700081917F01811105C0E017F107C1F790E075
:100B800008C068E0CE010E94D40391E028852813B4
:100B9000F6CF892FDF91CF911F910F91FF90EF90AA
:100BA000DF90CF90BF90AF909F908F907F906F908D
:100BB00008952091C001260F3327331F21323105BC
:100BC000ECF42091E401FC0190E080E0243069F035
:100BD00082E00895A091C0012191AC0140565E4F82
:100BE000A40FB52FB11D2C930196861798F3809111
:100BF000C001680F6093C00180E0089581E008950E
:100C00001092E40181E08093E6011092E50161E039
:100C100082E10E94FE0161E083E10E94FE01E9EBB6
:100C2000F0E080818E7F808380818D7F808388E467
:100C30008093B80085E48093BC000895CF93DF9340
:100C400091E090939F018823B9F0C091B800D091B2
:100C5000BA008091BC008A7B8093BC0060E082E196
:100C60000E94FE0160E083E10E94FE010E940006F6
:100C7000D093BA00C093B800DF91CF910895E0916E
:100C80005A0280915902E81730F4F0E0E658FE4F1E
:100C9000808190E008958FEF9FEF089590915A0220
:100CA000809159022FEF3FEF981748F4E92FF0E0B9
:100CB000E658FE4F208130E09F5F90935A02C901B1
:100CC00008958091590290915A02891B990B0895B9
:100CD000CF92DF92EF92FF920F931F93CF93DF9308
:100CE0007C01CB018A0120917901222389F0EB015B
:100CF0006B01C40ED51ECC15DD0569F06991D701D5
:100D0000ED91FC910190F081E02DC7010995F3CFA1
:100D1000642F0E94D905C801DF91CF911F910F91D7
:100D2000FF90EF90DF90CF900895CF93DF931F92C5
:100D3000CDB7DEB76983209179012223F9F02091A4
:100D40005702203258F021E030E0FC013383228347
:100D500090E080E00F90DF91CF910895809158024C
:100D6000E82FF0E0E75AFE4F998190838F5F8093E0
:100D700058028093570281E090E0ECCF61E0CE0111
:100D800001960E94D905F7CF90E080E008954F9238
:100D90005F926F927F928F929F92AF92BF92CF920B
:100DA000DF92EF92FF920F931F93CF93DF931092F6
:100DB0005801C1E0D1E082E0F82EEE24EA9495EEED
:100DC000D92E25ECC22E0BE113E08091580188301A
:100DD00008F0B1C0D0937901C0934F01109258022E
:100DE000109257020E94C2024B015C018091E40103
:100DF000811162C0F092E401D093E601E092E30138
:100E000010920802109207021092090290910902B2
:100E10008C2F880F892B809309028091E501813006
:100E200009F09AC01092E5010E94C2024B015C01D8
:100E3000809109028093BB0080919B0190919C015D
:100E4000A0919D01B0919E01892B8A2B8B2BA1F043
:100E50000E94C20240909B0150909C0160909D01B5
:100E600070909E01681979098A099B0946165706F0
:100E70006806790608F441C08091BC0083FDD8CF94
:100E8000C092BC000E94C2024B015C018091E4014F
:100E9000823009F464C08091E3018F3F09F481C07E
:100EA0008091E301803209F47EC08091E3018033B8
:100EB00009F47BC084E026C080919B0190919C0145
:100EC000A0919D01B0919E01892B8A2B8B2B09F457
:100ED0008DCF0E94C20240909B0150909C01609077
:100EE0009D0170909E01681979098A099B0946162F
:100EF00057066806790608F079CF80919A010E941A
:100F00001E0685E010925802109257021092790145
:100F100081110AC0E091580181E08E0F8093580141
:100F2000F0E0E05BFE4FC083C8010197F1F7CF5FAF
:100F3000CF3709F04ACFDF91CF911F910F91FF90EA
:100F4000EF90DF90CF90BF90AF909F908F907F9069
:100F50006F905F904F900895D092BC0093CF809196
:100F60009B0190919C01A0919D01B0919E01892BC4
:100F70008A2B8B2B09F48ACF0E94C20240909B01DE
:100F800050909C0160909D0170909E0168197909B4
:100F90008A099B09461657066806790608F076CF37
:100FA000ACCF80E0AFCF82E0ADCF83E0ABCF382FC6
:100FB000FC0180E047E09E2F931B961770F49191FF
:100FC000982728E0892F880F97FF03C0990F892F52
:100FD00084272150982FB1F7EECF0895CF92DF925A
:100FE000FF920F931F93CF93DF93CDB7DEB7C0551A
:100FF000D1090FB6F894DEBF0FBECDBF122F9AEA0B
:1010000099838A836B832C83942FDE011596FA01D2
:101010006D018E2F891B811718F481918D93F9CF63
:1010200085E0F82EF10E63E0610FCE0102960E947A
:10103000D707F601E10FF11D808380918C02882390
:1010400009F44FC08091C00085FFFCCF61E082E0D1
:101050000E94FE0183EC90E00197F1F78091C000BF
:1010600080648093C000CE010196FC012091C000F5
:1010700025FFFCCF21912093C6002E2F281B2F1572
:10108000A8F38091C00086FFFCCF83EC90E001972D
:10109000F1F760E082E00E94FE0161E08DE00E94D5
:1010A000FE010E941A03605B7F4F8F4F9F4F60933A
:1010B0007B0270937C0280937D0290937E0281E09C
:1010C00080937F02C05BDF4F0FB6F894DEBF0FBE88
:1010D000CDBFDF91CF911F910F91FF90DF90CF9007
:1010E000089581E094E00E948C0161E082E00E941A
:1010F000FE0103EC10E0C8010197F1F74F2D50E01D
:10110000BE016F5F7F4F81E094E00E949F0081E00D
:1011100094E00E948C01C801BACFCF93DF931F9255
:10112000CDB7DEB7898321E0AE014F5F5F4F67E047
:10113000809109010E94EE070F90DF91CF910895F1
:1011400020E050E040E066E0809109010C94EE0759
:101150008F929F92AF92BF92CF92DF92EF92FF92C7
:101160000F931F93CF93DF937C01EB01AFB6F894FD
:1011700050E040E063E0EFEFFFE3099507B600FCC5
:10118000FDCF8E01B12C6701CC1ADD0A88248A9428
:101190008FE3982EF80141818081542F482F61E020
:1011A000C601800F911FF4010995B394B3940E5FAB
:1011B0001F4FF0E8BF12EECF50E040E065E0C701FE
:1011C000F401099507B600FCFDCF50E040E061E175
:1011D000C701EFEFFFE3099507B600FCFDCFAFBEF7
:1011E0009E0120583F4FC217D307A9F0F601EC0F1C
:1011F000FD1FE4918991E817B1F380E0DF91CF9171
:101200001F910F91FF90EF90DF90CF90BF90AF9024
:101210009F908F90089581E0F1CF8F929F92AF922F
:10122000BF92CF92DF92EF92FF92CF93DF93D82FAE
:10123000C0E04B01B12CA12C6A01F12CE12C61E042
:101240008DE00E94FE01C501B4010E94E70260E04A
:101250008DE00E94FE01C701B6010E94E702CF5F48
:10126000DC13EDCFDF91CF91FF90EF90DF90CF9027
:10127000BF90AF909F908F9008952F923F924F9282
:101280005F926F927F928F929F92AF92BF92CF9216
:10129000DF92EF92FF920F931F93CF93DF9300D0D3
:1012A00000D01F92CDB7DEB7082F262E342E109116
:1012B00009010E941A034B015C014090F403509015
:1012C000F5036090F6037090F703C090F003D090A0
:1012D000F103E090F203F090F3038091F8038111A1
:1012E0007CC00E941A03A30192010E94E619AB017F
:1012F000BC014C155D056E057F05D8F40E941A03EC
:10130000681979098A099B09603C73408105910538
:1013100008F48EC0212F2150330BC90125E0289FEE
:10132000B001299F700D112490E080E00E94E70237
:1013300011C08091EC039091ED03A091EE03B09168
:10134000EF038C0D9D1DAE1DBF1D481759076A0781
:101350007B07A0F60E941A036093FD037093FE03BF
:101360008093FF03909300040E941A03C090F90336
:10137000D090FA03E090FB03F090FC036C0D7D1D10
:101380008E1D9F1D28EE33E040E050E00E94E619DC
:1013900009832A823B832C833D8225E0AE014F5F87
:1013A0005F4F6AE0812F0E94EE070F900F900F9021
:1013B0000F900F90DF91CF911F910F91FF90EF90C1
:1013C000DF90CF90BF90AF909F908F907F906F9065
:1013D0005F904F903F902F9008950E941A032091A4
:1013E000F9033091FA034091FB035091FC03620F23
:1013F000731F841F951FA30192010E94E6196C15AB
:101400007D058E059F0508F479CF4090EC03509040
:10141000ED036090EE037090EF03C40CD51CE61C46
:10142000F71C6C157D058E059F0508F067CF92CFE0
:10143000A8958BEC97E00197F1F73FCFCF92DF9221
:10144000EF92FF921F93CF93DF93C82FD62F142FC5
:101450000E941A03C090FD03D090FE03E090FF03AA
:10146000F09000046C197D098E099F0962337105A3
:101470008105910560F0412F6D2F8C2FDF91CF9169
:101480001F91FF90EF90DF90CF900C943D09DF917A
:10149000CF911F91FF90EF90DF90CF900895BF9272
:1014A000CF92DF92EF92FF920F931F93CF93DF9330
:1014B000EC01B62EC72E8D85811105C0CE010E948C
:1014C0009E0481110EC01B861D861C8680E0DF9164
:1014D000CF911F910F91FF90EF90DF90CF90BF9031
:1014E000089540E060EFCE010E944B0401E0E12C42
:1014F000D12C11E0CE010E94F803F82ECE010E94FB
:10150000F80391E0F91218C0813099F51134D8F23E
:10151000DB86D11002C081E08D878B81882399F210
:101520002396EB2DFC2DCF01089629912193E817E6
:10153000F907D9F781E0CBCFEE2DF0E0F8120FC01C
:101540008B851817A0F4DE01AE0FBF1F13968C9188
:10155000802379F4F12C193008F41C87D12EEC0F7C
:10156000FD1F8381902F9095892383830AC0811367
:10157000F1CFFE01EE0DF11D8381802B8383FF24CB
:10158000F3946F2DCE010E941C041F5F000F11F415
:10159000E39401E087E08E1508F0ACCFB7CFCF938E
:1015A000DF93EC018091D2049091D3040E94EB036D
:1015B000BE018091D2049091D3040E944F0A982FCB
:1015C000882341F067E0CE010E94D40391E02F818F
:1015D000281390E0892FDF91CF91089561E083E097
:1015E0000E942C0260E083E00E94FE0161E084E042
:1015F0000E942C0260E084E00E94FE0160E083E033
:101600000E94FE0160E084E00C94FE01CF93C82F9D
:1016100082E090E00E94C519C81731F06C2F82E07B
:1016200090E0CF910C94CD19CF91089590E080E097
:101630000E94C5198E3D39F481E090E00E94C519E1
:1016400091E08D3A09F090E0892F08950F931F9350
:10165000CF93DF93843058F480919B0381118DC028
:1016600084E0DF91CF911F910F910C948D08C09170
:10167000A003D091A103DC27CD27DC27CE01019761
:10168000803E914048F70091A2031091A3030E946D
:10169000EE0A80918C02811121C081E094E00E94C9
:1016A0008C018091C1008F758093C10081E094E02E
:1016B0000E94FD00892B29F081E094E00E94DB006C
:1016C000F5CF809168008B7F8093680080916E00D9
:1016D0008E7F80936E0081E080938C0288E199E296
:1016E0000FB6F894A895809360000FBE90936000A9
:1016F0008AE50E94060BD0939A03C09399031027A2
:1017000001271027109398030093970310929603D4
:10171000109295038FEF9FEF90930801809307013C
:1017200010929403109293030E941A0360938F0304
:1017300070939003809391039093920381E0809340
:101740008E03C0919B03C0938D0340E850E06FEF80
:1017500070E08DE093E00E941F1C40E850E06FEFC6
:1017600070E08DE892E00E941F1CC11106C0DF915D
:10177000CF911F910F910C94A008DF91CF911F91F1
:101780000F910895CF93C091940381E0CC2339F158
:10179000C13041F440E450E06FEF70E08DE493E03D
:1017A0000E941F1C80919503909196038C1B9109B8
:1017B000969587959695982F882797958795009762
:1017C00081F480E8EDE0F3E0ADE8B2E001900D9245
:1017D0008A95E1F781E08093930310929403CF916F
:1017E000089581152EE7920728F46DE073E00E94BA
:1017F000A808F3CF80E0F1CF85ED8093BC00809105
:101800009B0190919C01A0919D01B0919E01079632
:10181000A11DB11D23E0B695A795979587952A95AB
:10182000D1F72091BC0024FD03C01092E40108957B
:1018300040919B0150919C0160919D0170919E018E
:10184000452B462B472B69F30097A105B10541F0C5
:1018500025E32A95F1F700000197A109B109E1CF2D
:1018600080919A010C941E064F925F926F927F9224
:10187000BF92CF92DF92EF92FF920F931F93CF937D
:10188000DF93CDB7DEB76A970FB6F894DEBF0FBE11
:10189000CDBFCC24C3944AE0E42EF12C80918C027D
:1018A0008823C1F08091C00087FD47C06A960FB6BB
:1018B000F894DEBF0FBECDBFDF91CF911F910F9186
:1018C000FF90EF90DF90CF90BF907F906F905F90F0
:1018D0004F90089581E094E00E94FD0018161906CB
:1018E0002CF781E094E00E94DB00182F0E941A037D
:1018F00020914E012223C1F040904A0150904B01AB
:1019000060904C0170904D019B01AC012419350988
:101910004609570929013A013BE043165104610485
:10192000710410F010924E0160934A0170934B01C4
:1019300080934C0190934D0102C01091C600E0913C
:101940004E01E1110CC01A3A09F0A8CF81E08E0FC8
:1019500080934E01F0E0E456FC4F108302C0E03566
:10196000A8F380914E01853008F498CF00919F0331
:1019700015E0100F113518F010924E018FCF81171E
:1019800008F48CCF63E0600F8DE993E00E94D707E5
:10199000E12FF0E0E556FC4F90819813EDCFB09029
:1019A0009D03D0900901DB1411F0B110E5CF109127
:1019B0009E0381E0B11080E080939B0380917F02C1
:1019C000811114C061E08DE00E94FE010E941A03A3
:1019D000625E7F4F8F4F9F4F60937B0270937C02BC
:1019E00080937D0290937E02C0927F0280918E034D
:1019F0009FEF980F923008F0ECC0113F51F0123F6A
:101A000009F47CC0103F09F0DFC0802F0E94260B34
:101A1000B3CF813041F080918D038111ADCF84E04F
:101A20000E948D08A9CF0234B0F30091A003109159
:101A3000A103102701271027809195039091960309
:101A40000817190741F7A89580910701909108019F
:101A5000E2EAF3E02191922728E0AC01880F991F78
:101A600057FF04C041E2842740E194272150A9F7A1
:101A700053E0E23EF50771F7909308018093070168
:101A800080919403A82FA295AA0FAA0FA07CB0E082
:101A9000A35FBC4F90E4E2EAF3E001900D929A95C7
:101AA000E1F78F5F80939403209195033091960323
:101AB0002F5F3F4F3093960320939503823038F485
:101AC0008091990390919A032817390739F40E945D
:101AD000C20B811103C084E00E948A1180918D03A2
:101AE00081114ACF19830A8322E0AE014F5F5F4F15
:101AF00066E0809109010E94EE073ECF813009F037
:101B00008ACF20919503309196038091990390910B
:101B10009A032817390709F07ECF0E94C20B882349
:101B2000D1F22091070130910801809197039091A3
:101B300098032817390711F081E0CECFA89580913E
:101B400093038823A1F06DE872E090E080E00E94AA
:101B5000A80881110AC0A8956DE872E090E080E0C5
:101B60000E94A808882309F4B6CF1092930382E05C
:101B700090E00E94C5198F3F29F06FEF82E090E05E
:101B80000E94CD1980918D03811116C00E94A0087A
:101B90008FEF92E5A7E081509040A040E1F700C0B0
:101BA000000088E198E00FB6F894A8958093600053
:101BB0000FBE90936000FFCFBFEF20E732E0B1503F
:101BC00020403040E1F7EBCF83E0BB2009F4D4CED6
:101BD00027CF143009F493C058F4123009F451C0DF
:101BE00008F080C0113099F0BB2009F4C5CE09C0BF
:101BF0001D3048F41B3078F41530B1F7073008F089
:101C0000D4C082E00DCF103F09F4FFCEEDCF80911C
:101C10007002833019F40E94A008AECE853011F412
:101C200085E0FECE8BE00E94D501892B31F483E064
:101C3000809370020E94EE0AEECF109370020E9411
:101C40001A03609360027093610280936202909322
:101C5000630210925F020E94EE0A62E370E080E08D
:101C600090E00E94E70261E083E00E942C026CEDAC
:101C700070E083E00E94680260E084E00E94FE0160
:101C8000CACF80917002843031F2853049F28CE005
:101C90000E94D501892B11F484E0CACF1093700201
:101CA0000E941A0360936002709361028093620243
:101CB0009093630210925F020E94EE0A62E370E06A
:101CC00080E090E00E94E70260E083E00E94FE0175
:101CD00061E084E00E942C026CED70E084E00E94E0
:101CE000680299CF0E94EE0A80917002853021F03F
:101CF0008150823008F08FCF109270028CCF8BE031
:101D00000E94D50111E0892B09F010E08CE00E94BF
:101D1000D501892B09F4126000910301B0900401F0
:101D200020910501309106016FEF7FEF2F3F3207C1
:101D300021F0C901B7010E94E31B709065028091F8
:101D400064022F3F3F4FA1F081602091580140E590
:101D500051E0FE0173962F019E2F342D3E1B32174A
:101D600048F4DA013D91AD01D2013D932D01F5CF4B
:101D70008E7FEBCF3091700239831A83BB820C8344
:101D80007D836E837F8288872987DE011A968E2F56
:101D9000891B821718F481918D93F9CF275FAE01CB
:101DA0004F5F5F4F68E08D2DA6CE6091A0037091CC
:101DB000A1038091A2039091A3030E940B1C2B010D
:101DC0003C010091A4031091A503102701271027BF
:101DD000B090A603C8014497853D934010F00CE3F2
:101DE00010E08FEF8B0D8F3010F08FE0B82E0E9437
:101DF0001A0326E0420E511C611C711C461A570A38
:101E0000680A790A4092F9035092FA036092FB0340
:101E10007092FC031093020100930101B092000143
:101E20006093800270938102809382029093830278
:101E30002B2D30E050E040E02F5F3F4F4F4F5F4F82
:101E4000D8010E94DB196093F4037093F50380932B
:101E5000F6039093F70398014D2D4150550BDA018D
:101E60000E94121C6093F0037093F1038093F203BD
:101E70009093F3030A50110930E020E00093EC0343
:101E80001093ED032093EE033093EF038091F8035A
:101E9000C092F803811170CD4D2D60E30E941E0A9F
:101EA0006BCD1F920F920FB60F9211242F933F9379
:101EB0004F935F936F937F938F939F93AF93BF9352
:101EC000EF93FF9381E094E00E941D01FF91EF9159
:101ED000BF91AF919F918F917F916F915F914F9142
:101EE0003F912F910F900FBE0F901F9018951F924A
:101EF0000F920FB60F9211242F938F939F93EF930E
:101F0000FF93E0911104F09112048081E091170495
:101F1000F091180482FD1BC0908180911A048F5F9C
:101F20008F7320911B04821741F0E0911A04F0E0B6
:101F3000EF5FFB4F958F80931A04FF91EF919F9174
:101F40008F912F910F900FBE0F901F901895808149
:101F5000F4CF1F920F920FB60F9211242F933F933D
:101F60008F939F93AF93BF9380914B0290914C02BC
:101F7000A0914D02B0914E0230914A0223E0230F0E
:101F80002D3758F50196A11DB11D20934A0280936B
:101F90004B0290934C02A0934D02B0934E0280915D
:101FA0004F0290915002A0915102B09152020196BD
:101FB000A11DB11D80934F0290935002A093510236
:101FC000B0935202BF91AF919F918F913F912F910A
:101FD0000F900FBE0F901F90189526E8230F0296C2
:101FE000A11DB11DD2CF1F920F920FB60F921124D7
:101FF0002F933F934F935F936F937F938F939F9311
:10200000AF93BF93EF93FF93E0915D02F0915E0277
:10201000309749F0A685B7858585968D91FF14C0C8
:102020009C918923A1F4FF91EF91BF91AF919F9172
:102030008F917F916F915F914F913F912F910F9071
:102040000FBE0F901F9018959C91892361F7A3896B
:10205000B4899C918589809589238C9386899789F9
:102060000197F1F7608D718DA685B785558538E0AC
:1020700020E0CB010197F1F7822F90E095958795AD
:10208000282F4C91452309F02068315091F7868D17
:1020900081FD209580915C0290E001968F739927D5
:1020A00030915B02381799F0A0915C02B0E0A65F16
:1020B000BD4F2C9380935C02828D938D0197F1F735
:1020C000A389B4898C919589892B8C93ACCF868D0B
:1020D0008160868FF1CF1F920F920FB60F9211245D
:1020E0002F933F934F935F936F937F938F939F9320
:1020F000AF93BF93EF93FF938091B900887F8036B1
:1021000009F44AC0F0F5883209F4A7C018F5803107
:1021100009F49BC0B8F4882309F4F9C0883009F4A5
:1021200094C0FF91EF91BF91AF919F918F917F915B
:102130006F915F914F913F912F910F900FBE0F9034
:102140001F901895883109F488C0803251F7809328
:10215000E30114C0803409F49DC040F48033B9F326
:102160008833F9F68093E30185ECB0C0803509F43B
:1021700085C0883509F496C0883499F60E94FC0B16
:10218000D0CF883909F48CC038F5883729F050F45D
:10219000883611F0803729F683E08093E4011092AD
:1021A000E20157C0883809F47BC0803919F08038C3
:1021B00009F0B7CF8091E201803208F071C0E09160
:1021C000E20181E08E0F8093E2018091BB00F0E09C
:1021D000EE53FE4F80833DC0803B39F0E0F4803AFF
:1021E00009F479C0883A09F09CCF84E08093E40137
:1021F0001092C1011092C001E0915502F091560277
:1022000009958091C00181110FC081E08093C001C8
:102210001092A00109C0803C09F4A6CF883C09F4C3
:10222000A3CF883B09F07DCFE091C10181E08E0F03
:102230008093C101F0E0E056FE4F80818093BB00A7
:102240009091C1018091C00129C0809109028093C1
:10225000BB0085EC8093BC0064CF90910802809114
:102260000702981758F5E091080281E08E0F8093DD
:102270000802F0E0E951FE4F8081E9CFE0910802C9
:1022800081E08E0F809308028091BB00F0E0E9515D
:10229000FE4F808390910802809107029817C8F240
:1022A00085E8D8CFE091080281E08E0F8093080284
:1022B0008091BB00F0E0E951FE4F80838091E60100
:1022C00081115CCF81E08093E50184EA8093BC00BA
:1022D0001092E40126CF85EC8093BC001092E401BB
:1022E0008091E201803230F4E091E201F0E0EE53BF
:1022F000FE4F10826091E20170E0E0915302F09194
:10230000540282EC91E009951092E2010ACF1092FA
:10231000E30134CF10928E03109294031092930332
:1023200090918D03911102C00E948D082FEF80E7DC
:1023300092E0215080409040E1F700C0000088E129
:102340009CE00FB6F894A895809360000FBE909320
:102350006000FFCF109204041092030488EE93E013
:10236000A0E0B0E08093050490930604A0930704D6
:10237000B093080427E131E0309302042093010474
:1023800025EC30E030930E0420930D0424EC30E073
:102390003093100420930F0420EC30E030931204AB
:1023A0002093110421EC30E03093140420931304A3
:1023B00022EC30E0309316042093150426EC30E034
:1023C000309318042093170410921A0410921B04DF
:1023D00010921C0410921D041092A1041092A004EB
:1023E0008093A2049093A304A093A404B093A504A3
:1023F00029E231E030939F0420939E041092AD04B3
:102400001092AC048093AE049093AF04A093B004F8
:10241000B093B1048BE391E09093AB048093AA0452
:102420001092C1041092C0041092C3041092C2040E
:102430001092C5041092C4041092C7041092C604EE
:102440006091C8046E7F6D7F6093C804669561706B
:1024500081E0682780E10E94FE0161E080E10E9446
:102460002C02EEEDF0E0E491E093BA04EAECF0E047
:10247000E491F0E0EE0FFF1FEA55FF4F8591949134
:102480009093BC048093BB0460E085E00E942C0222
:102490008091C80481FD04C061E085E00E94FE01D6
:1024A00085E08093B604E3EDF0E0E491E093B704B7
:1024B000EFEBF0E0E491F0E0EE0FFF1FE055FF4F8F
:1024C000859194919093B9048093B80460E081E180
:1024D0000E942C02EFEDF0E0E491E093E004EBECDD
:1024E000F0E0E491F0E0EE0FFF1FE055FF4F859123
:1024F00094919093E2048093E10480EE94E00E9432
:10250000EB031092D0041092D1041092C90489E018
:102510008093CC0481E08093CD048093CE0480939B
:10252000CF041092CA041092DF041092DE048FEFE1
:102530008093DC041092DD0480EE94E09093D30449
:102540008093D2040895CF93DF93CDB7DEB76E9713
:102550000FB6F894DEBF0FBECDBF789484B582600D
:1025600084BD84B5816084BD85B5826085BD85B537
:10257000816085BD80916E00816080936E001092B5
:102580008100809181008260809381008091810030
:1025900081608093810080918000816080938000C1
:1025A0008091B10084608093B1008091B00081601F
:1025B0008093B00080917A00846080937A0080914B
:1025C0007A00826080937A0080917A0081608093A3
:1025D0007A0080917A00806880937A001092C1001E
:1025E00014BE88E1809360001092600061E08DE08D
:1025F0000E942C0261E08DE00E94FE016CE271E01D
:1026000080E090E00E94E70260E08DE00E94FE0121
:1026100068EC70E080E090E00E94E70261E082E018
:102620000E942C0260E082E00E94FE0161E083E0F3
:102630000E942C0261E084E00E942C020E94EE0ABB
:1026400060E08BE00E942C0260E08CE00E942C0293
:1026500062E088E00E942C0262E089E00E942C0285
:1026600062E08AE00E942C0288E00E94D50111E01D
:10267000892B09F010E089E00E94D501892B09F42B
:1026800012608AE00E94D501892B09F0FBC014601A
:1026900010930901E0911104F091120482E080830B
:1026A000E0910D04F0910E041082E0910F04F0917E
:1026B00010048FEC808310921904E0911504F091BE
:1026C000160486E08083E0911304F0911404808165
:1026D00080618083E0911304F0911404808188600C
:1026E0008083E0911304F0911404808180688083DA
:1026F000E0911304F091140480818F7D80830E9407
:10270000160B81110FC06EED90E080E00E94CD1994
:102710006DEA81E090E00E94CD196FEF82E090E0D9
:102720000E94CD1940E550E060E570E082E00E9433
:102730000D0968EC70E080E090E00E94E7021092E2
:102740005A021092590210925802109257020E9497
:1027500000068DE990E090935602809355028EE931
:1027600090E090935402809353020E94C70640E584
:1027700050E060E570E083E00E940D0968EC70E0D5
:1027800080E090E00E94E70213E001E08091D20433
:102790009091D3040E94EB031092D0041092D104C4
:1027A00062E370E080E090E00E94E702BE01665FB5
:1027B0007F4F8091D2049091D3040E944F0A8823C6
:1027C00009F47EC067E0CE010A960E94D40399897D
:1027D0008913ECCF8091D0048F5F8093D0048A85D9
:1027E000883231F008F052C0803111F08232F1F6B7
:1027F0008091D1048F5F8093D1048091C9048111AD
:1028000028C08091D2049091D3040E949E04BE01FE
:10281000665F7F4F8091D2049091D3040E947F0421
:1028200040E064EB8091D2049091D3040E944B0469
:102830008091D2049091D3040E94F803F82E8091E5
:10284000D2049091D3040E949E04F11002C0009320
:10285000C9048A85803129F1BE016F5F7F4FCE01A7
:102860000A960E946705882359F08D819A859B33CB
:1028700011F487FD16C08F33B1F078F48F31E1F099
:1028800080E012C0111104CF11E002CF8B3309F4A4
:10289000AFCF823409F08ACFABCF8F3579F08F3745
:1028A00079F78CE001C08AE09091CC04981708F089
:1028B0007DCF8093CC047ACF89E0F6CF8BE0F4CF44
:1028C0008091D004811195C4115009F05FCF10920E
:1028D000660228C0193008F0C2C419E0C0C4809153
:1028E000CA04882329F060E08091CB040E94FE0195
:1028F00064E170E080E090E00E94E7028091CA0409
:10290000882309F41EC561E08091CB040E94FE017A
:1029100018C51092CD040E94D6042A8F3B8F4C8F8D
:102920005D8F6E8F60E086E00E942C0260E087E0A1
:102930000E942C021092C5041092C4041092C30489
:102940001092C2041092C1041092C0048DE991E06B
:102950009093C7048093C6049091B604963108F012
:1029600047C02DEB30E03093C1042093C0042BE925
:1029700031E03093C3042093C2042CE231E0309361
:10298000C5042093C4042091680084E0983048F086
:1029900031E09E3008F430E081E001C0880F3A95C4
:1029A000EAF7822B809368002DE630E0983050F0F3
:1029B0002BE630E09E3030F02CE630E0963110F01F
:1029C00030E020E03093BE042093BD04292F30E096
:1029D000983008F041C181E001C0880F9A95EAF76C
:1029E0008093BF048091C6049091C7040197F1F7CA
:1029F0008091C4049091C504892B49F1E0915D0256
:102A0000F0915E0204E0EA3AF00709F1309739F0FC
:102A1000A389B4899C918589809589238C93809121
:102A2000C8048E7F8093C80410925C0210925B02EF
:102A30008AEA94E090935E0280935D02E091BD0487
:102A4000F091BE0480819091BF04892B80838FEF29
:102A50009FEF9093060180930501109267021092F8
:102A600068021092690210926A0210926F0240E5A9
:102A700050E060E570E084E00E940D0968EC70E0D1
:102A800080E090E00E94E7021092F8031092F903B0
:102A90001092FA031092FB031092FC038CE390E077
:102AA00090930201809301018FE080930001A09137
:102AB000090140EC53E060E070E04093F403509370
:102AC000F5036093F6037093F703A150BB0B2CE35F
:102AD00030E00E94121C6093F0037093F103809326
:102AE000F2039093F30382E390E0A0E0B0E08093E0
:102AF000EC039093ED03A093EE03B093EF030E94D9
:102B0000160B882309F43AC082E090E00E94C519B0
:102B10008A35A1F582E080938E0388E199E20FB6B1
:102B2000F894A895809360000FBE909360000E9477
:102B30001A036B017C01A89544E650E064E670E05E
:102B400082E00E940D096CE271E080E090E00E945A
:102B5000E7020E94340C80918E038150823070F421
:102B60000E941A036C197D098E099F0960367A4EFE
:102B70008105910500F38FEF0E94060B88E19FE02D
:102B80000FB6F894A895809360000FBE90936000F4
:102B900040E550E060E570E083E00E940D0900E050
:102BA000402E00E0502E66246A948FE7782ECC24C5
:102BB000CA94DC2CA4E02A2EB5E0FB2EEE24E3948C
:102BC00013E0312EA8950E94340C80918E03815021
:102BD000823008F452C010917002113009F084C0A4
:102BE0008BE00E94D501892B09F443C011501230AB
:102BF00008F043C00E941A03009160021091610224
:102C00002091620230916302601B710B820B930B67
:102C1000603177428105910580F10E94EE0AF092C1
:102C2000700280915F02811128C010910901212F4B
:102C300030E0AF2DB0E00E94081A0E94E702F9824E
:102C4000FA8222E0AE014F5F5F4F69E0812F0E9460
:102C5000EE07E0925F0211C09E3040F42850310927
:102C600081E001C0880F2A95EAF7BACE2E503109CB
:102C7000F7CF0E94EE0A3092700280918C02909100
:102C80008E03913009F03EC081116FC20E941A0379
:102C900000918F0310919003209191033091920342
:102CA000601B710B820B930B683B7B408105910588
:102CB00058F110928E031092940310929303809116
:102CC0008D03811106C04091950364E181E00E946B
:102CD0001E0A88E19FE00FB6F894A89580936000E3
:102CE0000FBE90936000FFCF123009F07FCF8CE0D1
:102CF0000E94D501892B09F079CF0E94EE0A20921B
:102D00007002BBCF811131C28091F803882369F131
:102D10000E941A0300918002109181022091820288
:102D200030918302601B710B820B930B68387341E7
:102D300081059105D0F01092F8030E941A030091CA
:102D4000FD031091FE032091FF0330910004601BEE
:102D5000710B820B930B623371058105910528F08D
:102D60004FEF60E381E00E943D090E941A034B018E
:102D70005C0180917F02882309F455C080917B0219
:102D800090917C02A0917D02B0917E0288169906F6
:102D9000AA06BB0630F060E08DE00E94FE011092B2
:102DA0007F028AEA94E00E949B03892B09F49FC06A
:102DB0008AEA94E00E94B303E0916F02E11102C03D
:102DC0008F3F79F791E09E0F90936F02F0E0E55905
:102DD000FD4F8083943029F710926F0280916C022E
:102DE00090916D02890F90916E029813DACF8091C5
:102DF0006C0290916D029827892798279C01245195
:102E000031092138314168F690930601809305011C
:102E10000E941A03609367027093680280936902AC
:102E200090936A02BECF80918E038150823070F100
:102E300080917002853009F454C08150823008F4CA
:102E400053C08091770290917802A0917902B0915D
:102E50007A0288169906AA06BB0608F4A2CF6091EA
:102E600071026E25609371028DE00E94FE0114EFE5
:102E7000810E11E0911EA11CB11C809277029092EC
:102E80007802A0927902B0927A028BCF84E690E029
:102E900040917302509174026091750270917602B4
:102EA00095018401041B150B260B370BB901A801F2
:102EB000B0E0A0E0481759076A077B0708F471CF14
:102EC0008092730290927402A0927502B092760280
:102ED000609172026E25609372028DE00E94FE0185
:102EE00060CF80E590E0D4CF88EC90E0D1CF8090A7
:102EF000670290906802A0906902B0906A02811403
:102F00009104A104B10479F00E941A0368197909A7
:102F10008A099B09603D77408105910520F0D09298
:102F20000601C09205010E941A03009188021091C7
:102F3000890220918A0230918B02601B710B820BF7
:102F4000930B603D77408105910508F4EFC00E9426
:102F50001A03609388027093890280938A02909387
:102F60008B0280916602882309F4C1C08091D0044D
:102F7000882309F4B1C0CE010A960E94CF0A8823A3
:102F800009F4AAC0BE016F5F7F4FCE010A960E946E
:102F90006705882309F4A0C05A81812C912C540123
:102FA00057FF06C0812C912CF8EFAF2EBB24BA94AA
:102FB0007A8549817B3309F06DC08D8187FF6AC0B6
:102FC00040FD8AC0042F10E030E020E073E0000FE5
:102FD000111F221F331F7A95D1F7007E1770222709
:102FE0003327452F50E070E060E0EBE0440F551FC1
:102FF000661F771FEA95D1F7042B152B262B372B4D
:10300000082919292A293B29013854EE15075FEFB1
:10301000250735070CF460C0C901B8010E94C11A28
:1030200020E030E040E05CE30E94761B4B015C0155
:1030300020E030E04EEF52EC0E94841A882309F41D
:103040004BC020E030E04CE552ECC501B4010E94D9
:10305000841A87FD41C020E030E04AEF52E4C50108
:10306000B4010E94711B1816BCF120E030E040E270
:1030700051E4C501B4010E94761B20E030E040E03D
:103080005FE30E94181A0E94891A709304016093EA
:10309000030126C0052F10E0102F0027110F110F7C
:1030A000110F28E0429FC0011124082B192B012E7B
:1030B000000C220B330B082919292A293B297832C5
:1030C00009F066C0403509F05CC0553009F09CCF6E
:1030D0008F818C3009F098CF7092040160920301C7
:1030E0000E94D6042A8B3B8B4C8B5D8B6E8B8FE0C2
:1030F0000E94B00286E00E94D5018C0180E10E940E
:10310000B00295958795959587958093650287E0A0
:103110000E94D5019C0191E0012B09F090E082E032
:10312000232B09F080E0982B909364020E941A03ED
:1031300000918402109185022091860230918702CD
:10314000601B710B820B930B6031774281059105F7
:1031500060F00E941A03609384027093850280934A
:103160008602909387020E94C7064114510409F415
:1031700029CD0E940901882309F41CCD0E9400007A
:1031800019CD4F3F09F040CF573009F03DCFA4CFC4
:10319000703109F039CF6885662309F435CF70E0C6
:1031A0008F81AB01481B5109CA019695982F88273A
:1031B000979587950E94F71BCB01770FAA0BBB0B46
:1031C00053E0000F111F221F331F5A95D1F70078CB
:1031D000277033270052110921093109800F911FEF
:1031E000A21FB31F95018401082B192B2A2B3B2BFF
:1031F0000BCFCE0142960E94CF0A809366028823AD
:1032000009F490CB8CE08093CC048091D20490910F
:10321000D3040E94EB0300E08091D004081708F06B
:1032200078CBBE01665F7F4F8091D2049091D3042A
:103230000E944F0A882309F48AC067E0CE010A96EB
:103240000E94D4039989891382C01091CC048A8585
:10325000803109F47CC01D3008F43CCB1CE0BE0179
:103260006F5F7F4FCE010A960E946705882309F49D
:103270006EC01A508FE1133028F4E12FF0E0E65FC2
:10328000FE4F80819D81981709F461C08D838091E4
:10329000D2049091D3040E949E04BE01665F7F4FCA
:1032A0008091D2049091D3040E947F0440E06EE4A8
:1032B0008091D2049091D3040E944B0440E06B8132
:1032C0008091D2049091D3040E944B0440E06C8121
:1032D0008091D2049091D3040E944B048A8580315E
:1032E00041F040E06D818091D2049091D3040E941E
:1032F0004B048091D2049091D3042091CF042223D7
:1033000021F10E949E04882311F1BE01665F7F4F68
:103310008091D2049091D3040E947F044091C9040B
:1033200068E48091D2049091D3040E944B04809170
:10333000C9048111D4CA64E170E080E090E00E9489
:10334000E7028091D2049091D3040E949E040F5F03
:1033500063CF8BE391E09093AB048093AA048091B8
:103360005D0290915E028A5A944071F4E091BD042E
:10337000F091BE0490818091BF0480958923808361
:1033800010925E0210925D020895F999FECF92BDEF
:1033900081BDF89A992780B50895262FF999FECF17
:1033A0001FBA92BD81BD20BD0FB6F894FA9AF99A62
:1033B0000FBE019608950E94081AA59F900DB49F14
:1033C000900DA49F800D911D11240895A1E21A2E45
:1033D000AA1BBB1BFD010DC0AA1FBB1FEE1FFF1FB9
:1033E000A217B307E407F50720F0A21BB30BE40B09
:1033F000F50B661F771F881F991F1A9469F7609550
:103400007095809590959B01AC01BD01CF01089509
:10341000A29FB001B39FC001A39F700D811D112415
:10342000911DB29F700D811D1124911D089550585A
:10343000BB27AA270E942F1A0C94371B0E94291B16
:1034400038F00E94301B20F039F49F3F19F426F425
:103450000C94261B0EF4E095E7FB0C94201BE92F3F
:103460000E94481B58F3BA17620773078407950731
:1034700020F079F4A6F50C946A1B0EF4E0950B2E5F
:10348000BA2FA02D0B01B90190010C01CA01A001B6
:103490001124FF27591B99F0593F50F4503E68F111
:1034A0001A16F040A22F232F342F4427585FF3CF52
:1034B000469537952795A795F0405395C9F77EF423
:1034C0001F16BA0B620B730B840BBAF09150A1F06C
:1034D000FF0FBB1F661F771F881FC2F70EC0BA0FF2
:1034E000621F731F841F48F4879577956795B7957A
:1034F000F7959E3F08F0B0CF9395880F08F0992775
:10350000EE0F9795879508950E94FC1A08F481E0C4
:1035100008950E94901A6894B1110C946B1B089541
:103520000E94501B88F09F5798F0B92F9927B751E8
:10353000B0F0E1F0660F771F881F991F1AF0BA9557
:10354000C9F714C0B13091F00E946A1BB1E0089530
:103550000C946A1B672F782F8827B85F39F0B93F22
:10356000CCF3869577956795B395D9F73EF490950A
:103570008095709561957F4F8F4F9F4F0895E89488
:1035800009C097FB3EF490958095709561957F4FAB
:103590008F4F9F4F9923A9F0F92F96E9BB27939559
:1035A000F695879577956795B795F111F8CFFAF469
:1035B000BB0F11F460FF1BC06F5F7F4F8F4F9F4F9A
:1035C00016C0882311F096E911C0772321F09EE8F8
:1035D000872F762F05C0662371F096E8862F70E05E
:1035E00060E02AF09A95660F771F881FDAF7880F38
:1035F0009695879597F90895990F0008550FAA0B8E
:10360000E0E8FEEF16161706E807F907C0F01216F5
:103610001306E407F50798F0621B730B840B950BF8
:1036200039F40A2661F0232B242B252B21F408954D
:103630000A2609F4A140A6958FEF811D811D0895EA
:1036400097F99F6780E870E060E008959FEF80EC55
:10365000089500240A9416161706180609060895F8
:1036600000240A9412161306140605060895092E5E
:103670000394000C11F4882352F0BB0F40F4BF2BCD
:1036800011F460FF04C06F5F7F4F8F4F9F4F08950D
:1036900057FD9058440F551F59F05F3F71F0479503
:1036A000880F97FB991F61F09F3F79F087950895E8
:1036B000121613061406551FF2CF4695F1DF08C007
:1036C000161617061806991FF1CF86957105610524
:1036D00008940895E894BB2766277727CB0197F9CC
:1036E00008950E94FC1A08F48FEF08950E94891B28
:1036F0000C94371B0E94291B38F00E94301B20F0CD
:10370000952311F00C94201B0C94261B11240C946F
:103710006B1B0E94481B70F3959FC1F3950F50E0FF
:10372000551F629FF001729FBB27F00DB11D639F73
:10373000AA27F00DB11DAA1F649F6627B00DA11D19
:10374000661F829F2227B00DA11D621F739FB00DBF
:10375000A11D621F839FA00D611D221F749F33272F
:10376000A00D611D231F849F600D211D822F762FC8
:103770006A2F11249F5750409AF0F1F088234AF0A5
:10378000EE0FFF1FBB1F661F771F881F9150504011
:10379000A9F79E3F510580F00C94201B0C946B1BE5
:1037A0005F3FE4F3983ED4F3869577956795B79598
:1037B000F795E7959F5FC1F7FE2B880F911D9695B2
:1037C000879597F90895AA1BBB1B51E107C0AA1F53
:1037D000BB1FA617B70710F0A61BB70B881F991FB2
:1037E0005A95A9F780959095BC01CD01089597FB56
:1037F000072E16F4009407D077FD09D00E94E31B32
:1038000007FC05D03EF4909581959F4F08957095E3
:1038100061957F4F0895692796276927782787271D
:10382000782708950E94081AB7FF0895821B930B0A
:103830000895EE0FFF1F0590F491E02D0994DC012F
:1038400001C06D9341505040E0F7089510E0C2E789
:10385000D0E004C0FE010E94191C2196C337D10795
:06386000C9F7F894FFCF48
:103866000F3C00FF7FFFFFFFFF013F5F7F5E00BC55
:10387600007701000000003F019F00CC008C01FD95
:1038860000DB00EF000000000095066806C4063E57
:103896000361064E063F06000000003F039F00C47A
:0A38A600063E039B03B30326030054
:00000001FF
